{
  "contractName": "StarNotary",
  "abi": [
    {
      "inputs": [],
      "stateMutability": "nonpayable",
      "type": "constructor"
    },
    {
      "anonymous": false,
      "inputs": [
        {
          "indexed": true,
          "internalType": "address",
          "name": "owner",
          "type": "address"
        },
        {
          "indexed": true,
          "internalType": "address",
          "name": "approved",
          "type": "address"
        },
        {
          "indexed": true,
          "internalType": "uint256",
          "name": "tokenId",
          "type": "uint256"
        }
      ],
      "name": "Approval",
      "type": "event"
    },
    {
      "anonymous": false,
      "inputs": [
        {
          "indexed": true,
          "internalType": "address",
          "name": "owner",
          "type": "address"
        },
        {
          "indexed": true,
          "internalType": "address",
          "name": "operator",
          "type": "address"
        },
        {
          "indexed": false,
          "internalType": "bool",
          "name": "approved",
          "type": "bool"
        }
      ],
      "name": "ApprovalForAll",
      "type": "event"
    },
    {
      "anonymous": false,
      "inputs": [
        {
          "indexed": true,
          "internalType": "address",
          "name": "from",
          "type": "address"
        },
        {
          "indexed": true,
          "internalType": "address",
          "name": "to",
          "type": "address"
        },
        {
          "indexed": true,
          "internalType": "uint256",
          "name": "tokenId",
          "type": "uint256"
        }
      ],
      "name": "Transfer",
      "type": "event"
    },
    {
      "inputs": [
        {
          "internalType": "address",
          "name": "to",
          "type": "address"
        },
        {
          "internalType": "uint256",
          "name": "tokenId",
          "type": "uint256"
        }
      ],
      "name": "approve",
      "outputs": [],
      "stateMutability": "nonpayable",
      "type": "function"
    },
    {
      "inputs": [
        {
          "internalType": "address",
          "name": "owner",
          "type": "address"
        }
      ],
      "name": "balanceOf",
      "outputs": [
        {
          "internalType": "uint256",
          "name": "",
          "type": "uint256"
        }
      ],
      "stateMutability": "view",
      "type": "function",
      "constant": true
    },
    {
      "inputs": [
        {
          "internalType": "uint256",
          "name": "tokenId",
          "type": "uint256"
        }
      ],
      "name": "getApproved",
      "outputs": [
        {
          "internalType": "address",
          "name": "",
          "type": "address"
        }
      ],
      "stateMutability": "view",
      "type": "function",
      "constant": true
    },
    {
      "inputs": [
        {
          "internalType": "address",
          "name": "owner",
          "type": "address"
        },
        {
          "internalType": "address",
          "name": "operator",
          "type": "address"
        }
      ],
      "name": "isApprovedForAll",
      "outputs": [
        {
          "internalType": "bool",
          "name": "",
          "type": "bool"
        }
      ],
      "stateMutability": "view",
      "type": "function",
      "constant": true
    },
    {
      "inputs": [],
      "name": "name",
      "outputs": [
        {
          "internalType": "string",
          "name": "",
          "type": "string"
        }
      ],
      "stateMutability": "view",
      "type": "function",
      "constant": true
    },
    {
      "inputs": [
        {
          "internalType": "uint256",
          "name": "tokenId",
          "type": "uint256"
        }
      ],
      "name": "ownerOf",
      "outputs": [
        {
          "internalType": "address",
          "name": "",
          "type": "address"
        }
      ],
      "stateMutability": "view",
      "type": "function",
      "constant": true
    },
    {
      "inputs": [
        {
          "internalType": "address",
          "name": "from",
          "type": "address"
        },
        {
          "internalType": "address",
          "name": "to",
          "type": "address"
        },
        {
          "internalType": "uint256",
          "name": "tokenId",
          "type": "uint256"
        }
      ],
      "name": "safeTransferFrom",
      "outputs": [],
      "stateMutability": "nonpayable",
      "type": "function"
    },
    {
      "inputs": [
        {
          "internalType": "address",
          "name": "from",
          "type": "address"
        },
        {
          "internalType": "address",
          "name": "to",
          "type": "address"
        },
        {
          "internalType": "uint256",
          "name": "tokenId",
          "type": "uint256"
        },
        {
          "internalType": "bytes",
          "name": "_data",
          "type": "bytes"
        }
      ],
      "name": "safeTransferFrom",
      "outputs": [],
      "stateMutability": "nonpayable",
      "type": "function"
    },
    {
      "inputs": [
        {
          "internalType": "address",
          "name": "operator",
          "type": "address"
        },
        {
          "internalType": "bool",
          "name": "approved",
          "type": "bool"
        }
      ],
      "name": "setApprovalForAll",
      "outputs": [],
      "stateMutability": "nonpayable",
      "type": "function"
    },
    {
      "inputs": [
        {
          "internalType": "uint256",
          "name": "",
          "type": "uint256"
        }
      ],
      "name": "starsForSale",
      "outputs": [
        {
          "internalType": "uint256",
          "name": "",
          "type": "uint256"
        }
      ],
      "stateMutability": "view",
      "type": "function",
      "constant": true
    },
    {
      "inputs": [
        {
          "internalType": "bytes4",
          "name": "interfaceId",
          "type": "bytes4"
        }
      ],
      "name": "supportsInterface",
      "outputs": [
        {
          "internalType": "bool",
          "name": "",
          "type": "bool"
        }
      ],
      "stateMutability": "view",
      "type": "function",
      "constant": true
    },
    {
      "inputs": [],
      "name": "symbol",
      "outputs": [
        {
          "internalType": "string",
          "name": "",
          "type": "string"
        }
      ],
      "stateMutability": "view",
      "type": "function",
      "constant": true
    },
    {
      "inputs": [
        {
          "internalType": "uint256",
          "name": "",
          "type": "uint256"
        }
      ],
      "name": "tokenIdToStarInfo",
      "outputs": [
        {
          "internalType": "string",
          "name": "name",
          "type": "string"
        }
      ],
      "stateMutability": "view",
      "type": "function",
      "constant": true
    },
    {
      "inputs": [
        {
          "internalType": "uint256",
          "name": "tokenId",
          "type": "uint256"
        }
      ],
      "name": "tokenURI",
      "outputs": [
        {
          "internalType": "string",
          "name": "",
          "type": "string"
        }
      ],
      "stateMutability": "view",
      "type": "function",
      "constant": true
    },
    {
      "inputs": [
        {
          "internalType": "address",
          "name": "from",
          "type": "address"
        },
        {
          "internalType": "address",
          "name": "to",
          "type": "address"
        },
        {
          "internalType": "uint256",
          "name": "tokenId",
          "type": "uint256"
        }
      ],
      "name": "transferFrom",
      "outputs": [],
      "stateMutability": "nonpayable",
      "type": "function"
    },
    {
      "inputs": [
        {
          "internalType": "string",
          "name": "_name",
          "type": "string"
        },
        {
          "internalType": "uint256",
          "name": "_tokenId",
          "type": "uint256"
        }
      ],
      "name": "createStar",
      "outputs": [],
      "stateMutability": "nonpayable",
      "type": "function"
    },
    {
      "inputs": [
        {
          "internalType": "uint256",
          "name": "_tokenId",
          "type": "uint256"
        },
        {
          "internalType": "uint256",
          "name": "_price",
          "type": "uint256"
        }
      ],
      "name": "putStarUpForSale",
      "outputs": [],
      "stateMutability": "nonpayable",
      "type": "function"
    },
    {
      "inputs": [
        {
          "internalType": "uint256",
          "name": "_tokenId",
          "type": "uint256"
        }
      ],
      "name": "buyStar",
      "outputs": [],
      "stateMutability": "payable",
      "type": "function",
      "payable": true
    },
    {
      "inputs": [
        {
          "internalType": "uint256",
          "name": "_tokenId",
          "type": "uint256"
        }
      ],
      "name": "lookUptokenIdToStarInfo",
      "outputs": [
        {
          "internalType": "string",
          "name": "",
          "type": "string"
        }
      ],
      "stateMutability": "view",
      "type": "function",
      "constant": true
    },
    {
      "inputs": [
        {
          "internalType": "uint256",
          "name": "_tokenId1",
          "type": "uint256"
        },
        {
          "internalType": "uint256",
          "name": "_tokenId2",
          "type": "uint256"
        }
      ],
      "name": "exchangeStars",
      "outputs": [],
      "stateMutability": "nonpayable",
      "type": "function"
    },
    {
      "inputs": [
        {
          "internalType": "address",
          "name": "_to1",
          "type": "address"
        },
        {
          "internalType": "uint256",
          "name": "_tokenId",
          "type": "uint256"
        }
      ],
      "name": "transferStar",
      "outputs": [],
      "stateMutability": "nonpayable",
      "type": "function"
    }
  ],
  "bytecode": "0x60806040523480156200001157600080fd5b506040518060400160405280600b81526020017f53746172204e6f746172790000000000000000000000000000000000000000008152506040518060400160405280600381526020017f53544e0000000000000000000000000000000000000000000000000000000000815250816000908051906020019062000096929190620000b8565b508060019080519060200190620000af929190620000b8565b505050620001cd565b828054620000c69062000168565b90600052602060002090601f016020900481019282620000ea576000855562000136565b82601f106200010557805160ff191683800117855562000136565b8280016001018555821562000136579182015b828111156200013557825182559160200191906001019062000118565b5b50905062000145919062000149565b5090565b5b80821115620001645760008160009055506001016200014a565b5090565b600060028204905060018216806200018157607f821691505b602082108114156200019857620001976200019e565b5b50919050565b7f4e487b7100000000000000000000000000000000000000000000000000000000600052602260045260246000fd5b6131ee80620001dd6000396000f3fe60806040526004361061012a5760003560e01c806342842e0e116100ab578063a22cb4651161006f578063a22cb46514610405578063b88d4fde1461042e578063c87b56dd14610457578063d7830ccb14610494578063e7152a5c146104d1578063e985e9c5146104fa5761012a565b806342842e0e1461030e5780636352211e1461033757806370a082311461037457806395d89b41146103b15780639697c0a1146103dc5761012a565b806315e0afa5116100f257806315e0afa51461023a5780631967fd981461026357806323b872dd146102a05780632f1c34ef146102c9578063316a4361146102e55761012a565b806301ffc9a71461012f5780630564b1301461016c57806306fdde03146101a9578063081812fc146101d4578063095ea7b314610211575b600080fd5b34801561013b57600080fd5b5061015660048036038101906101519190612172565b610537565b6040516101639190612ac6565b60405180910390f35b34801561017857600080fd5b50610193600480360381019061018e9190612218565b610619565b6040516101a09190612d83565b60405180910390f35b3480156101b557600080fd5b506101be610631565b6040516101cb9190612ae1565b60405180910390f35b3480156101e057600080fd5b506101fb60048036038101906101f69190612218565b6106c3565b6040516102089190612a5f565b60405180910390f35b34801561021d57600080fd5b5061023860048036038101906102339190612136565b610748565b005b34801561024657600080fd5b50610261600480360381019061025c9190612241565b610860565b005b34801561026f57600080fd5b5061028a60048036038101906102859190612218565b61093a565b6040516102979190612ae1565b60405180910390f35b3480156102ac57600080fd5b506102c760048036038101906102c29190612030565b6109e0565b005b6102e360048036038101906102de9190612218565b610a40565b005b3480156102f157600080fd5b5061030c60048036038101906103079190612241565b610bbd565b005b34801561031a57600080fd5b5061033560048036038101906103309190612030565b610c4f565b005b34801561034357600080fd5b5061035e60048036038101906103599190612218565b610c6f565b60405161036b9190612a5f565b60405180910390f35b34801561038057600080fd5b5061039b60048036038101906103969190611fcb565b610d21565b6040516103a89190612d83565b60405180910390f35b3480156103bd57600080fd5b506103c6610dd9565b6040516103d39190612ae1565b60405180910390f35b3480156103e857600080fd5b5061040360048036038101906103fe91906121c4565b610e6b565b005b34801561041157600080fd5b5061042c600480360381019061042791906120fa565b610ec1565b005b34801561043a57600080fd5b506104556004803603810190610450919061207f565b611042565b005b34801561046357600080fd5b5061047e60048036038101906104799190612218565b6110a4565b60405161048b9190612ae1565b60405180910390f35b3480156104a057600080fd5b506104bb60048036038101906104b69190612218565b61114b565b6040516104c89190612ae1565b60405180910390f35b3480156104dd57600080fd5b506104f860048036038101906104f39190612136565b611258565b005b34801561050657600080fd5b50610521600480360381019061051c9190611ff4565b6112e3565b60405161052e9190612ac6565b60405180910390f35b60007f80ac58cd000000000000000000000000000000000000000000000000000000007bffffffffffffffffffffffffffffffffffffffffffffffffffffffff1916827bffffffffffffffffffffffffffffffffffffffffffffffffffffffff1916148061060257507f5b5e139f000000000000000000000000000000000000000000000000000000007bffffffffffffffffffffffffffffffffffffffffffffffffffffffff1916827bffffffffffffffffffffffffffffffffffffffffffffffffffffffff1916145b80610612575061061182611377565b5b9050919050565b60076020528060005260406000206000915090505481565b60606000805461064090612fe3565b80601f016020809104026020016040519081016040528092919081815260200182805461066c90612fe3565b80156106b95780601f1061068e576101008083540402835291602001916106b9565b820191906000526020600020905b81548152906001019060200180831161069c57829003601f168201915b5050505050905090565b60006106ce826113e1565b61070d576040517f08c379a000000000000000000000000000000000000000000000000000000000815260040161070490612c83565b60405180910390fd5b6004600083815260200190815260200160002060009054906101000a900473ffffffffffffffffffffffffffffffffffffffff169050919050565b600061075382610c6f565b90508073ffffffffffffffffffffffffffffffffffffffff168373ffffffffffffffffffffffffffffffffffffffff1614156107c4576040517f08c379a00000000000000000000000000000000000000000000000000000000081526004016107bb90612d03565b60405180910390fd5b8073ffffffffffffffffffffffffffffffffffffffff166107e361144d565b73ffffffffffffffffffffffffffffffffffffffff16148061081257506108118161080c61144d565b6112e3565b5b610851576040517f08c379a000000000000000000000000000000000000000000000000000000000815260040161084890612c03565b60405180910390fd5b61085b8383611455565b505050565b600061086b83610c6f565b9050600061087883610c6f565b90503373ffffffffffffffffffffffffffffffffffffffff168273ffffffffffffffffffffffffffffffffffffffff1614806108df57503373ffffffffffffffffffffffffffffffffffffffff168173ffffffffffffffffffffffffffffffffffffffff16145b61091e576040517f08c379a000000000000000000000000000000000000000000000000000000000815260040161091590612bc3565b60405180910390fd5b6109298282866109e0565b6109348183856109e0565b50505050565b600660205280600052604060002060009150905080600001805461095d90612fe3565b80601f016020809104026020016040519081016040528092919081815260200182805461098990612fe3565b80156109d65780601f106109ab576101008083540402835291602001916109d6565b820191906000526020600020905b8154815290600101906020018083116109b957829003601f168201915b5050505050905081565b6109f16109eb61144d565b8261150e565b610a30576040517f08c379a0000000000000000000000000000000000000000000000000000000008152600401610a2790612d43565b60405180910390fd5b610a3b8383836115ec565b505050565b6000600760008381526020019081526020016000205411610a96576040517f08c379a0000000000000000000000000000000000000000000000000000000008152600401610a8d90612d23565b60405180910390fd5b6000600760008381526020019081526020016000205490506000610ab983610c6f565b9050813411610afd576040517f08c379a0000000000000000000000000000000000000000000000000000000008152600401610af490612ce3565b60405180910390fd5b610b088133856109e0565b6000610b1382611848565b90508073ffffffffffffffffffffffffffffffffffffffff166108fc849081150290604051600060405180830381858888f19350505050158015610b5b573d6000803e3d6000fd5b5082341115610bb7573373ffffffffffffffffffffffffffffffffffffffff166108fc8434610b8a9190612ef9565b9081150290604051600060405180830381858888f19350505050158015610bb5573d6000803e3d6000fd5b505b50505050565b3373ffffffffffffffffffffffffffffffffffffffff16610bdd83610c6f565b73ffffffffffffffffffffffffffffffffffffffff1614610c33576040517f08c379a0000000000000000000000000000000000000000000000000000000008152600401610c2a90612b03565b60405180910390fd5b8060076000848152602001908152602001600020819055505050565b610c6a83838360405180602001604052806000815250611042565b505050565b6000806002600084815260200190815260200160002060009054906101000a900473ffffffffffffffffffffffffffffffffffffffff169050600073ffffffffffffffffffffffffffffffffffffffff168173ffffffffffffffffffffffffffffffffffffffff161415610d18576040517f08c379a0000000000000000000000000000000000000000000000000000000008152600401610d0f90612c43565b60405180910390fd5b80915050919050565b60008073ffffffffffffffffffffffffffffffffffffffff168273ffffffffffffffffffffffffffffffffffffffff161415610d92576040517f08c379a0000000000000000000000000000000000000000000000000000000008152600401610d8990612c23565b60405180910390fd5b600360008373ffffffffffffffffffffffffffffffffffffffff1673ffffffffffffffffffffffffffffffffffffffff168152602001908152602001600020549050919050565b606060018054610de890612fe3565b80601f0160208091040260200160405190810160405280929190818152602001828054610e1490612fe3565b8015610e615780601f10610e3657610100808354040283529160200191610e61565b820191906000526020600020905b815481529060010190602001808311610e4457829003601f168201915b5050505050905090565b6000604051806020016040528084815250905080600660008481526020019081526020016000206000820151816000019080519060200190610eae929190611def565b50905050610ebc3383611852565b505050565b610ec961144d565b73ffffffffffffffffffffffffffffffffffffffff168273ffffffffffffffffffffffffffffffffffffffff161415610f37576040517f08c379a0000000000000000000000000000000000000000000000000000000008152600401610f2e90612ba3565b60405180910390fd5b8060056000610f4461144d565b73ffffffffffffffffffffffffffffffffffffffff1673ffffffffffffffffffffffffffffffffffffffff16815260200190815260200160002060008473ffffffffffffffffffffffffffffffffffffffff1673ffffffffffffffffffffffffffffffffffffffff16815260200190815260200160002060006101000a81548160ff0219169083151502179055508173ffffffffffffffffffffffffffffffffffffffff16610ff161144d565b73ffffffffffffffffffffffffffffffffffffffff167f17307eab39ab6107e8899845ad3d59bd9653f200f220920489ca2b5937696c31836040516110369190612ac6565b60405180910390a35050565b61105361104d61144d565b8361150e565b611092576040517f08c379a000000000000000000000000000000000000000000000000000000000815260040161108990612d43565b60405180910390fd5b61109e84848484611a20565b50505050565b60606110af826113e1565b6110ee576040517f08c379a00000000000000000000000000000000000000000000000000000000081526004016110e590612cc3565b60405180910390fd5b60006110f8611a7c565b905060008151116111185760405180602001604052806000815250611143565b8061112284611a93565b604051602001611133929190612a3b565b6040516020818303038152906040525b915050919050565b6060600060066000848152602001908152602001600020600001805461117090612fe3565b9050116111b2576040517f08c379a00000000000000000000000000000000000000000000000000000000081526004016111a990612d63565b60405180910390fd5b6006600083815260200190815260200160002060000180546111d390612fe3565b80601f01602080910402602001604051908101604052809291908181526020018280546111ff90612fe3565b801561124c5780601f106112215761010080835404028352916020019161124c565b820191906000526020600020905b81548152906001019060200180831161122f57829003601f168201915b50505050509050919050565b600061126382610c6f565b90503373ffffffffffffffffffffffffffffffffffffffff168173ffffffffffffffffffffffffffffffffffffffff16146112d3576040517f08c379a00000000000000000000000000000000000000000000000000000000081526004016112ca90612b23565b60405180910390fd5b6112de8184846109e0565b505050565b6000600560008473ffffffffffffffffffffffffffffffffffffffff1673ffffffffffffffffffffffffffffffffffffffff16815260200190815260200160002060008373ffffffffffffffffffffffffffffffffffffffff1673ffffffffffffffffffffffffffffffffffffffff16815260200190815260200160002060009054906101000a900460ff16905092915050565b60007f01ffc9a7000000000000000000000000000000000000000000000000000000007bffffffffffffffffffffffffffffffffffffffffffffffffffffffff1916827bffffffffffffffffffffffffffffffffffffffffffffffffffffffff1916149050919050565b60008073ffffffffffffffffffffffffffffffffffffffff166002600084815260200190815260200160002060009054906101000a900473ffffffffffffffffffffffffffffffffffffffff1673ffffffffffffffffffffffffffffffffffffffff1614159050919050565b600033905090565b816004600083815260200190815260200160002060006101000a81548173ffffffffffffffffffffffffffffffffffffffff021916908373ffffffffffffffffffffffffffffffffffffffff160217905550808273ffffffffffffffffffffffffffffffffffffffff166114c883610c6f565b73ffffffffffffffffffffffffffffffffffffffff167f8c5be1e5ebec7d5bd14f71427d1e84f3dd0314c0f7b2291e5b200ac8c7c3b92560405160405180910390a45050565b6000611519826113e1565b611558576040517f08c379a000000000000000000000000000000000000000000000000000000000815260040161154f90612be3565b60405180910390fd5b600061156383610c6f565b90508073ffffffffffffffffffffffffffffffffffffffff168473ffffffffffffffffffffffffffffffffffffffff1614806115d257508373ffffffffffffffffffffffffffffffffffffffff166115ba846106c3565b73ffffffffffffffffffffffffffffffffffffffff16145b806115e357506115e281856112e3565b5b91505092915050565b8273ffffffffffffffffffffffffffffffffffffffff1661160c82610c6f565b73ffffffffffffffffffffffffffffffffffffffff1614611662576040517f08c379a000000000000000000000000000000000000000000000000000000000815260040161165990612ca3565b60405180910390fd5b600073ffffffffffffffffffffffffffffffffffffffff168273ffffffffffffffffffffffffffffffffffffffff1614156116d2576040517f08c379a00000000000000000000000000000000000000000000000000000000081526004016116c990612b83565b60405180910390fd5b6116dd838383611c40565b6116e8600082611455565b6001600360008573ffffffffffffffffffffffffffffffffffffffff1673ffffffffffffffffffffffffffffffffffffffff16815260200190815260200160002060008282546117389190612ef9565b925050819055506001600360008473ffffffffffffffffffffffffffffffffffffffff1673ffffffffffffffffffffffffffffffffffffffff168152602001908152602001600020600082825461178f9190612e72565b92505081905550816002600083815260200190815260200160002060006101000a81548173ffffffffffffffffffffffffffffffffffffffff021916908373ffffffffffffffffffffffffffffffffffffffff160217905550808273ffffffffffffffffffffffffffffffffffffffff168473ffffffffffffffffffffffffffffffffffffffff167fddf252ad1be2c89b69c2b068fc378daa952ba7f163c4a11628f55a4df523b3ef60405160405180910390a4505050565b6000819050919050565b600073ffffffffffffffffffffffffffffffffffffffff168273ffffffffffffffffffffffffffffffffffffffff1614156118c2576040517f08c379a00000000000000000000000000000000000000000000000000000000081526004016118b990612c63565b60405180910390fd5b6118cb816113e1565b1561190b576040517f08c379a000000000000000000000000000000000000000000000000000000000815260040161190290612b63565b60405180910390fd5b61191760008383611c40565b6001600360008473ffffffffffffffffffffffffffffffffffffffff1673ffffffffffffffffffffffffffffffffffffffff16815260200190815260200160002060008282546119679190612e72565b92505081905550816002600083815260200190815260200160002060006101000a81548173ffffffffffffffffffffffffffffffffffffffff021916908373ffffffffffffffffffffffffffffffffffffffff160217905550808273ffffffffffffffffffffffffffffffffffffffff16600073ffffffffffffffffffffffffffffffffffffffff167fddf252ad1be2c89b69c2b068fc378daa952ba7f163c4a11628f55a4df523b3ef60405160405180910390a45050565b611a2b8484846115ec565b611a3784848484611c45565b611a76576040517f08c379a0000000000000000000000000000000000000000000000000000000008152600401611a6d90612b43565b60405180910390fd5b50505050565b606060405180602001604052806000815250905090565b60606000821415611adb576040518060400160405280600181526020017f30000000000000000000000000000000000000000000000000000000000000008152509050611c3b565b600082905060005b60008214611b0d578080611af690613015565b915050600a82611b069190612ec8565b9150611ae3565b60008167ffffffffffffffff811115611b4f577f4e487b7100000000000000000000000000000000000000000000000000000000600052604160045260246000fd5b6040519080825280601f01601f191660200182016040528015611b815781602001600182028036833780820191505090505b5090505b60008514611c3457600182611b9a9190612ef9565b9150600a85611ba9919061305e565b6030611bb59190612e72565b60f81b818381518110611bf1577f4e487b7100000000000000000000000000000000000000000000000000000000600052603260045260246000fd5b60200101907effffffffffffffffffffffffffffffffffffffffffffffffffffffffffffff1916908160001a905350600a85611c2d9190612ec8565b9450611b85565b8093505050505b919050565b505050565b6000611c668473ffffffffffffffffffffffffffffffffffffffff16611ddc565b15611dcf578373ffffffffffffffffffffffffffffffffffffffff1663150b7a02611c8f61144d565b8786866040518563ffffffff1660e01b8152600401611cb19493929190612a7a565b602060405180830381600087803b158015611ccb57600080fd5b505af1925050508015611cfc57506040513d601f19601f82011682018060405250810190611cf9919061219b565b60015b611d7f573d8060008114611d2c576040519150601f19603f3d011682016040523d82523d6000602084013e611d31565b606091505b50600081511415611d77576040517f08c379a0000000000000000000000000000000000000000000000000000000008152600401611d6e90612b43565b60405180910390fd5b805181602001fd5b63150b7a0260e01b7bffffffffffffffffffffffffffffffffffffffffffffffffffffffff1916817bffffffffffffffffffffffffffffffffffffffffffffffffffffffff191614915050611dd4565b600190505b949350505050565b600080823b905060008111915050919050565b828054611dfb90612fe3565b90600052602060002090601f016020900481019282611e1d5760008555611e64565b82601f10611e3657805160ff1916838001178555611e64565b82800160010185558215611e64579182015b82811115611e63578251825591602001919060010190611e48565b5b509050611e719190611e75565b5090565b5b80821115611e8e576000816000905550600101611e76565b5090565b6000611ea5611ea084612dcf565b612d9e565b905082815260208101848484011115611ebd57600080fd5b611ec8848285612fa1565b509392505050565b6000611ee3611ede84612dff565b612d9e565b905082815260208101848484011115611efb57600080fd5b611f06848285612fa1565b509392505050565b600081359050611f1d8161315c565b92915050565b600081359050611f3281613173565b92915050565b600081359050611f478161318a565b92915050565b600081519050611f5c8161318a565b92915050565b600082601f830112611f7357600080fd5b8135611f83848260208601611e92565b91505092915050565b600082601f830112611f9d57600080fd5b8135611fad848260208601611ed0565b91505092915050565b600081359050611fc5816131a1565b92915050565b600060208284031215611fdd57600080fd5b6000611feb84828501611f0e565b91505092915050565b6000806040838503121561200757600080fd5b600061201585828601611f0e565b925050602061202685828601611f0e565b9150509250929050565b60008060006060848603121561204557600080fd5b600061205386828701611f0e565b935050602061206486828701611f0e565b925050604061207586828701611fb6565b9150509250925092565b6000806000806080858703121561209557600080fd5b60006120a387828801611f0e565b94505060206120b487828801611f0e565b93505060406120c587828801611fb6565b925050606085013567ffffffffffffffff8111156120e257600080fd5b6120ee87828801611f62565b91505092959194509250565b6000806040838503121561210d57600080fd5b600061211b85828601611f0e565b925050602061212c85828601611f23565b9150509250929050565b6000806040838503121561214957600080fd5b600061215785828601611f0e565b925050602061216885828601611fb6565b9150509250929050565b60006020828403121561218457600080fd5b600061219284828501611f38565b91505092915050565b6000602082840312156121ad57600080fd5b60006121bb84828501611f4d565b91505092915050565b600080604083850312156121d757600080fd5b600083013567ffffffffffffffff8111156121f157600080fd5b6121fd85828601611f8c565b925050602061220e85828601611fb6565b9150509250929050565b60006020828403121561222a57600080fd5b600061223884828501611fb6565b91505092915050565b6000806040838503121561225457600080fd5b600061226285828601611fb6565b925050602061227385828601611fb6565b9150509250929050565b61228681612f2d565b82525050565b61229581612f3f565b82525050565b60006122a682612e2f565b6122b08185612e45565b93506122c0818560208601612fb0565b6122c98161314b565b840191505092915050565b60006122df82612e3a565b6122e98185612e56565b93506122f9818560208601612fb0565b6123028161314b565b840191505092915050565b600061231882612e3a565b6123228185612e67565b9350612332818560208601612fb0565b80840191505092915050565b600061234b602783612e56565b91507f596f752063616e27742073616c6520746865205374617220796f7520646f6e2760008301527f74206f776e6564000000000000000000000000000000000000000000000000006020830152604082019050919050565b60006123b1602183612e56565b91507f596f75206d75737420626520746865206f776e6572206f66207468652073746160008301527f72000000000000000000000000000000000000000000000000000000000000006020830152604082019050919050565b6000612417603283612e56565b91507f4552433732313a207472616e7366657220746f206e6f6e20455243373231526560008301527f63656976657220696d706c656d656e74657200000000000000000000000000006020830152604082019050919050565b600061247d601c83612e56565b91507f4552433732313a20746f6b656e20616c7265616479206d696e746564000000006000830152602082019050919050565b60006124bd602483612e56565b91507f4552433732313a207472616e7366657220746f20746865207a65726f2061646460008301527f72657373000000000000000000000000000000000000000000000000000000006020830152604082019050919050565b6000612523601983612e56565b91507f4552433732313a20617070726f766520746f2063616c6c6572000000000000006000830152602082019050919050565b6000612563601583612e56565b91507f596f7520617265206e6f7420746865206f776e657200000000000000000000006000830152602082019050919050565b60006125a3602c83612e56565b91507f4552433732313a206f70657261746f7220717565727920666f72206e6f6e657860008301527f697374656e7420746f6b656e00000000000000000000000000000000000000006020830152604082019050919050565b6000612609603883612e56565b91507f4552433732313a20617070726f76652063616c6c6572206973206e6f74206f7760008301527f6e6572206e6f7220617070726f76656420666f7220616c6c00000000000000006020830152604082019050919050565b600061266f602a83612e56565b91507f4552433732313a2062616c616e636520717565727920666f7220746865207a6560008301527f726f2061646472657373000000000000000000000000000000000000000000006020830152604082019050919050565b60006126d5602983612e56565b91507f4552433732313a206f776e657220717565727920666f72206e6f6e657869737460008301527f656e7420746f6b656e00000000000000000000000000000000000000000000006020830152604082019050919050565b600061273b602083612e56565b91507f4552433732313a206d696e7420746f20746865207a65726f20616464726573736000830152602082019050919050565b600061277b602c83612e56565b91507f4552433732313a20617070726f76656420717565727920666f72206e6f6e657860008301527f697374656e7420746f6b656e00000000000000000000000000000000000000006020830152604082019050919050565b60006127e1602983612e56565b91507f4552433732313a207472616e73666572206f6620746f6b656e2074686174206960008301527f73206e6f74206f776e00000000000000000000000000000000000000000000006020830152604082019050919050565b6000612847602f83612e56565b91507f4552433732314d657461646174613a2055524920717565727920666f72206e6f60008301527f6e6578697374656e7420746f6b656e00000000000000000000000000000000006020830152604082019050919050565b60006128ad601d83612e56565b91507f596f75206e65656420746f206861766520656e6f7567682045746865720000006000830152602082019050919050565b60006128ed602183612e56565b91507f4552433732313a20617070726f76616c20746f2063757272656e74206f776e6560008301527f72000000000000000000000000000000000000000000000000000000000000006020830152604082019050919050565b6000612953601e83612e56565b91507f54686520537461722073686f756c6420626520757020666f722073616c6500006000830152602082019050919050565b6000612993603183612e56565b91507f4552433732313a207472616e736665722063616c6c6572206973206e6f74206f60008301527f776e6572206e6f7220617070726f7665640000000000000000000000000000006020830152604082019050919050565b60006129f9600e83612e56565b91507f53746172206e6f7420666f756e640000000000000000000000000000000000006000830152602082019050919050565b612a3581612f97565b82525050565b6000612a47828561230d565b9150612a53828461230d565b91508190509392505050565b6000602082019050612a74600083018461227d565b92915050565b6000608082019050612a8f600083018761227d565b612a9c602083018661227d565b612aa96040830185612a2c565b8181036060830152612abb818461229b565b905095945050505050565b6000602082019050612adb600083018461228c565b92915050565b60006020820190508181036000830152612afb81846122d4565b905092915050565b60006020820190508181036000830152612b1c8161233e565b9050919050565b60006020820190508181036000830152612b3c816123a4565b9050919050565b60006020820190508181036000830152612b5c8161240a565b9050919050565b60006020820190508181036000830152612b7c81612470565b9050919050565b60006020820190508181036000830152612b9c816124b0565b9050919050565b60006020820190508181036000830152612bbc81612516565b9050919050565b60006020820190508181036000830152612bdc81612556565b9050919050565b60006020820190508181036000830152612bfc81612596565b9050919050565b60006020820190508181036000830152612c1c816125fc565b9050919050565b60006020820190508181036000830152612c3c81612662565b9050919050565b60006020820190508181036000830152612c5c816126c8565b9050919050565b60006020820190508181036000830152612c7c8161272e565b9050919050565b60006020820190508181036000830152612c9c8161276e565b9050919050565b60006020820190508181036000830152612cbc816127d4565b9050919050565b60006020820190508181036000830152612cdc8161283a565b9050919050565b60006020820190508181036000830152612cfc816128a0565b9050919050565b60006020820190508181036000830152612d1c816128e0565b9050919050565b60006020820190508181036000830152612d3c81612946565b9050919050565b60006020820190508181036000830152612d5c81612986565b9050919050565b60006020820190508181036000830152612d7c816129ec565b9050919050565b6000602082019050612d986000830184612a2c565b92915050565b6000604051905081810181811067ffffffffffffffff82111715612dc557612dc461311c565b5b8060405250919050565b600067ffffffffffffffff821115612dea57612de961311c565b5b601f19601f8301169050602081019050919050565b600067ffffffffffffffff821115612e1a57612e1961311c565b5b601f19601f8301169050602081019050919050565b600081519050919050565b600081519050919050565b600082825260208201905092915050565b600082825260208201905092915050565b600081905092915050565b6000612e7d82612f97565b9150612e8883612f97565b9250827fffffffffffffffffffffffffffffffffffffffffffffffffffffffffffffffff03821115612ebd57612ebc61308f565b5b828201905092915050565b6000612ed382612f97565b9150612ede83612f97565b925082612eee57612eed6130be565b5b828204905092915050565b6000612f0482612f97565b9150612f0f83612f97565b925082821015612f2257612f2161308f565b5b828203905092915050565b6000612f3882612f77565b9050919050565b60008115159050919050565b60007fffffffff0000000000000000000000000000000000000000000000000000000082169050919050565b600073ffffffffffffffffffffffffffffffffffffffff82169050919050565b6000819050919050565b82818337600083830152505050565b60005b83811015612fce578082015181840152602081019050612fb3565b83811115612fdd576000848401525b50505050565b60006002820490506001821680612ffb57607f821691505b6020821081141561300f5761300e6130ed565b5b50919050565b600061302082612f97565b91507fffffffffffffffffffffffffffffffffffffffffffffffffffffffffffffffff8214156130535761305261308f565b5b600182019050919050565b600061306982612f97565b915061307483612f97565b925082613084576130836130be565b5b828206905092915050565b7f4e487b7100000000000000000000000000000000000000000000000000000000600052601160045260246000fd5b7f4e487b7100000000000000000000000000000000000000000000000000000000600052601260045260246000fd5b7f4e487b7100000000000000000000000000000000000000000000000000000000600052602260045260246000fd5b7f4e487b7100000000000000000000000000000000000000000000000000000000600052604160045260246000fd5b6000601f19601f8301169050919050565b61316581612f2d565b811461317057600080fd5b50565b61317c81612f3f565b811461318757600080fd5b50565b61319381612f4b565b811461319e57600080fd5b50565b6131aa81612f97565b81146131b557600080fd5b5056fea2646970667358221220c95089cc13e9177f3937b69dbd7a9a28aeba9359fec1821a3defb30b74308eae64736f6c63430008000033",
  "immutableReferences": {},
  "source": "pragma solidity >=0.4.24;\n\nimport \"../node_modules/openzeppelin-solidity/contracts/token/ERC721/ERC721.sol\";\n\n// StarNotary Contract declaration inheritance the ERC721 openzeppelin implementation\ncontract StarNotary is ERC721 {\n\n    // Implement Task 1 Add a name and symbol properties\n    // name: Is a short name to your token\n    // symbol: Is a short string like 'USD' -> 'American Dollar'\n    // NOTE: ERC721 already has properties named `name` and `symbol`\n    constructor() ERC721(\"Star Notary\", \"STN\") {}\n\n    // Star data\n    struct Star {\n        string name;\n    }\n\n    // mapping the Star with the Owner Address\n    mapping(uint256 => Star) public tokenIdToStarInfo;\n    // mapping the TokenId and price\n    mapping(uint256 => uint256) public starsForSale;\n\n\n    // Create Star using the Struct\n    function createStar(string memory _name, uint256 _tokenId) public { // Passing the name and tokenId as a parameters\n        Star memory newStar = Star(_name); // Star is an struct so we are creating a new Star\n        tokenIdToStarInfo[_tokenId] = newStar; // Creating in memory the Star -> tokenId mapping\n        _mint(msg.sender, _tokenId); // _mint assign the the star with _tokenId to the sender address (ownership)\n    }\n\n    // Putting an Star for sale (Adding the star tokenid into the mapping starsForSale, first verify that the sender is the owner)\n    function putStarUpForSale(uint256 _tokenId, uint256 _price) public {\n        require(ownerOf(_tokenId) == msg.sender, \"You can't sale the Star you don't owned\");\n        starsForSale[_tokenId] = _price;\n    }\n\n    // Function that allows you to convert an address into a payable address\n    function _make_payable(address x) internal pure returns (address payable) {\n        return payable(x);\n    }\n\n    function buyStar(uint256 _tokenId) public  payable {\n        require(starsForSale[_tokenId] > 0, \"The Star should be up for sale\");\n        uint256 starCost = starsForSale[_tokenId];\n        address ownerAddress = ownerOf(_tokenId);\n        require(msg.value > starCost, \"You need to have enough Ether\");\n        transferFrom(ownerAddress, msg.sender, _tokenId); // We can't use _addTokenTo or_removeTokenFrom functions, now we have to use _transferFrom\n        address payable ownerAddressPayable = _make_payable(ownerAddress); // We need to make this conversion to be able to use transfer() function to transfer ethers\n        ownerAddressPayable.transfer(starCost);\n        if(msg.value > starCost) {\n            payable(msg.sender).transfer(msg.value - starCost);\n        }\n    }\n\n    // Implement Task 1 lookUptokenIdToStarInfo\n    function lookUptokenIdToStarInfo(uint _tokenId) public view returns (string memory) {\n        //1. You should return the Star saved in tokenIdToStarInfo mapping\n        require(bytes(tokenIdToStarInfo[_tokenId].name).length > 0, \"Star not found\");\n        return tokenIdToStarInfo[_tokenId].name;\n    }\n\n    // Implement Task 1 Exchange Stars function\n    function exchangeStars(uint256 _tokenId1, uint256 _tokenId2) public {\n        //1. Passing to star tokenId you will need to check if the owner of _tokenId1 or _tokenId2 is the sender\n        address starOwner1 = ownerOf(_tokenId1);\n        address starOwner2 = ownerOf(_tokenId2);\n\n        //2. You don't have to check for the price of the token (star)\n        //3. Get the owner of the two tokens (ownerOf(_tokenId1), ownerOf(_tokenId1)\n        //4. Use _transferFrom function to exchange the tokens.\n        require((starOwner1 == msg.sender || starOwner2 == msg.sender), \"You are not the owner\");\n\n        transferFrom(starOwner1, starOwner2, _tokenId1);\n        transferFrom(starOwner2, starOwner1, _tokenId2);\n    }\n\n    // Implement Task 1 Transfer Stars\n    function transferStar(address _to1, uint256 _tokenId) public {\n        //1. Check if the sender is the ownerOf(_tokenId)\n        address ownerAddress = ownerOf(_tokenId);\n        require(ownerAddress == msg.sender, \"You must be the owner of the star\");\n        //2. Use the transferFrom(from, to, tokenId); function to transfer the Star\n        transferFrom(ownerAddress, _to1, _tokenId);\n    }\n\n}\n",
  "sourcePath": "/Users/stockbit/Downloads/nd1309-p2-Decentralized-Star-Notary-Service-Starter-Code-main/contracts/StarNotary.sol",
  "compiler": {
    "name": "solc",
    "version": "0.8.0+commit.c7dfd78e.Emscripten.clang"
  },
  "schemaVersion": "3.4.1",
  "updatedAt": "2021-06-25T01:17:11.581Z",
  "networkType": "ethereum",
  "devdoc": {
    "kind": "dev",
    "methods": {
      "approve(address,uint256)": {
        "details": "See {IERC721-approve}."
      },
      "balanceOf(address)": {
        "details": "See {IERC721-balanceOf}."
      },
      "getApproved(uint256)": {
        "details": "See {IERC721-getApproved}."
      },
      "isApprovedForAll(address,address)": {
        "details": "See {IERC721-isApprovedForAll}."
      },
      "name()": {
        "details": "See {IERC721Metadata-name}."
      },
      "ownerOf(uint256)": {
        "details": "See {IERC721-ownerOf}."
      },
      "safeTransferFrom(address,address,uint256)": {
        "details": "See {IERC721-safeTransferFrom}."
      },
      "safeTransferFrom(address,address,uint256,bytes)": {
        "details": "See {IERC721-safeTransferFrom}."
      },
      "setApprovalForAll(address,bool)": {
        "details": "See {IERC721-setApprovalForAll}."
      },
      "supportsInterface(bytes4)": {
        "details": "See {IERC165-supportsInterface}."
      },
      "symbol()": {
        "details": "See {IERC721Metadata-symbol}."
      },
      "tokenURI(uint256)": {
        "details": "See {IERC721Metadata-tokenURI}."
      },
      "transferFrom(address,address,uint256)": {
        "details": "See {IERC721-transferFrom}."
      }
    },
    "version": 1
  },
  "userdoc": {
    "kind": "user",
    "methods": {},
    "version": 1
  }
}